{
  "contractName": "ERC721Holder",
  "abi": [
    {
      "constant": false,
      "inputs": [
        {
          "internalType": "address",
          "name": "",
          "type": "address"
        },
        {
          "internalType": "uint256",
          "name": "",
          "type": "uint256"
        },
        {
          "internalType": "bytes",
          "name": "",
          "type": "bytes"
        }
      ],
      "name": "onERC721Received",
      "outputs": [
        {
          "internalType": "bytes4",
          "name": "",
          "type": "bytes4"
        }
      ],
      "payable": false,
      "stateMutability": "nonpayable",
      "type": "function"
    }
  ],
  "bytecode": "0x608060405234801561001057600080fd5b506101af806100206000396000f3fe608060405234801561001057600080fd5b506004361061002b5760003560e01c8063f0b9e5ba14610030575b600080fd5b6101136004803603606081101561004657600080fd5b81019080803573ffffffffffffffffffffffffffffffffffffffff169060200190929190803590602001909291908035906020019064010000000081111561008d57600080fd5b82018360208201111561009f57600080fd5b803590602001918460018302840111640100000000831117156100c157600080fd5b91908080601f016020809104026020016040519081016040528093929190818152602001838380828437600081840152601f19601f820116905080830192505050505050509192919290505050610167565b60405180827bffffffffffffffffffffffffffffffffffffffffffffffffffffffff19167bffffffffffffffffffffffffffffffffffffffffffffffffffffffff1916815260200191505060405180910390f35b600063f0b9e5ba60e01b9050939250505056fea265627a7a72315820e8a661a6239854e3c88076f8ed78ca94b22f736c7e2abaf1e87c842c3b43fbf664736f6c63430005110032",
  "source": "pragma solidity ^0.5.16;\r\n\r\nimport \"./ERC721Receiver.sol\";\r\n\r\n\r\ncontract ERC721Holder is ERC721Receiver {\r\n  function onERC721Received(address, uint256, bytes memory) public returns(bytes4) {\r\n    return ERC721_RECEIVED;\r\n  }\r\n}",
  "sourcePath": "C:/Users/yashr/Documents/Important/Projects/Footprints/src/contracts/ERC721Holder.sol",
  "compiler": {
    "name": "solc",
    "version": "0.5.17+commit.d19bba13.Emscripten.clang"
  },
  "schemaVersion": "3.4.1",
  "updatedAt": "2021-08-15T14:29:22.491Z",
  "devdoc": {
    "methods": {}
  },
  "userdoc": {
    "methods": {}
  }
}