{
  "contractName": "MarketPlaceStorage",
  "abi": [
    {
      "anonymous": false,
      "inputs": [
        {
          "indexed": false,
          "internalType": "bytes32",
          "name": "id",
          "type": "bytes32"
        },
        {
          "indexed": true,
          "internalType": "uint256",
          "name": "assetId",
          "type": "uint256"
        },
        {
          "indexed": true,
          "internalType": "address",
          "name": "seller",
          "type": "address"
        },
        {
          "indexed": false,
          "internalType": "address",
          "name": "nftAddress",
          "type": "address"
        }
      ],
      "name": "OrderCancelled",
      "type": "event"
    },
    {
      "anonymous": false,
      "inputs": [
        {
          "indexed": false,
          "internalType": "bytes32",
          "name": "id",
          "type": "bytes32"
        },
        {
          "indexed": true,
          "internalType": "uint256",
          "name": "assetId",
          "type": "uint256"
        },
        {
          "indexed": true,
          "internalType": "address",
          "name": "seller",
          "type": "address"
        },
        {
          "indexed": false,
          "internalType": "address",
          "name": "nftAddress",
          "type": "address"
        },
        {
          "indexed": false,
          "internalType": "uint256",
          "name": "priceInWei",
          "type": "uint256"
        }
      ],
      "name": "OrderCreated",
      "type": "event"
    },
    {
      "anonymous": false,
      "inputs": [
        {
          "indexed": false,
          "internalType": "bytes32",
          "name": "id",
          "type": "bytes32"
        },
        {
          "indexed": true,
          "internalType": "uint256",
          "name": "assetId",
          "type": "uint256"
        },
        {
          "indexed": true,
          "internalType": "address",
          "name": "seller",
          "type": "address"
        },
        {
          "indexed": false,
          "internalType": "address",
          "name": "nftAddress",
          "type": "address"
        },
        {
          "indexed": false,
          "internalType": "uint256",
          "name": "totalPrice",
          "type": "uint256"
        },
        {
          "indexed": true,
          "internalType": "address",
          "name": "buyer",
          "type": "address"
        }
      ],
      "name": "OrderSuccessful",
      "type": "event"
    },
    {
      "constant": true,
      "inputs": [
        {
          "internalType": "uint256",
          "name": "",
          "type": "uint256"
        },
        {
          "internalType": "uint256",
          "name": "",
          "type": "uint256"
        }
      ],
      "name": "approvalList",
      "outputs": [
        {
          "internalType": "address",
          "name": "",
          "type": "address"
        }
      ],
      "payable": false,
      "stateMutability": "view",
      "type": "function"
    },
    {
      "constant": true,
      "inputs": [],
      "name": "nftCounter",
      "outputs": [
        {
          "internalType": "uint256",
          "name": "",
          "type": "uint256"
        }
      ],
      "payable": false,
      "stateMutability": "view",
      "type": "function"
    },
    {
      "constant": true,
      "inputs": [
        {
          "internalType": "address",
          "name": "",
          "type": "address"
        },
        {
          "internalType": "uint256",
          "name": "",
          "type": "uint256"
        }
      ],
      "name": "orderByAssetId",
      "outputs": [
        {
          "internalType": "bytes32",
          "name": "id",
          "type": "bytes32"
        },
        {
          "internalType": "address payable",
          "name": "seller",
          "type": "address"
        },
        {
          "internalType": "address",
          "name": "nftAddress",
          "type": "address"
        },
        {
          "internalType": "uint256",
          "name": "price",
          "type": "uint256"
        }
      ],
      "payable": false,
      "stateMutability": "view",
      "type": "function"
    },
    {
      "constant": true,
      "inputs": [
        {
          "internalType": "uint256",
          "name": "",
          "type": "uint256"
        }
      ],
      "name": "premiumNFT",
      "outputs": [
        {
          "internalType": "uint256",
          "name": "",
          "type": "uint256"
        }
      ],
      "payable": false,
      "stateMutability": "view",
      "type": "function"
    }
  ],
  "bytecode": "0x608060405234801561001057600080fd5b50610313806100206000396000f3fe608060405234801561001057600080fd5b506004361061004c5760003560e01c806319a421431461005157806330d9e57414610093578063e574609e1461010b578063e61f385114610129575b600080fd5b61007d6004803603602081101561006757600080fd5b81019080803590602001909291905050506101f8565b6040518082815260200191505060405180910390f35b6100c9600480360360408110156100a957600080fd5b810190808035906020019092919080359060200190929190505050610210565b604051808273ffffffffffffffffffffffffffffffffffffffff1673ffffffffffffffffffffffffffffffffffffffff16815260200191505060405180910390f35b61011361025b565b6040518082815260200191505060405180910390f35b6101756004803603604081101561013f57600080fd5b81019080803573ffffffffffffffffffffffffffffffffffffffff16906020019092919080359060200190929190505050610261565b604051808581526020018473ffffffffffffffffffffffffffffffffffffffff1673ffffffffffffffffffffffffffffffffffffffff1681526020018373ffffffffffffffffffffffffffffffffffffffff1673ffffffffffffffffffffffffffffffffffffffff16815260200182815260200194505050505060405180910390f35b60026020528060005260406000206000915090505481565b6003602052816000526040600020818154811061022957fe5b906000526020600020016000915091509054906101000a900473ffffffffffffffffffffffffffffffffffffffff1681565b60005481565b6001602052816000526040600020602052806000526040600020600091509150508060000154908060010160009054906101000a900473ffffffffffffffffffffffffffffffffffffffff16908060020160009054906101000a900473ffffffffffffffffffffffffffffffffffffffff1690806003015490508456fea265627a7a72315820d520c7cadf17ea3cc37a8481bf99c4584c8bd12010ecee6c846b3ae70b5861d764736f6c63430005110032",
  "source": "pragma solidity ^0.5.16;\r\n\r\n/**\r\n * @title Interface for contracts conforming to ERC-721\r\n */\r\n\r\n\r\ncontract MarketPlaceStorage {\r\n\r\n  struct Order {\r\n    // Order ID\r\n    bytes32 id;\r\n    // Owner of the NFT\r\n    address payable seller;\r\n    // NFT registry address\r\n    address nftAddress;\r\n    // Price (in wei) for the published item\r\n    uint256 price;\r\n  }\r\n\r\n  uint256 public nftCounter;\r\n    \r\n  // From NFT registry assetId to Order (to avoid asset collision)\r\n  mapping (address => mapping(uint256 => Order)) public orderByAssetId;\r\n  \r\n  // nftCounter => assetID\r\n  mapping (uint256 => uint256) public premiumNFT;\r\n  \r\n  // asset id => aprroved Address for that asset id\r\n  mapping (uint256 => address[]) public approvalList;\r\n\r\n  // EVENTS\r\n  event OrderCreated(\r\n    bytes32 id,\r\n    uint256 indexed assetId,\r\n    address indexed seller,\r\n    address nftAddress,\r\n    uint256 priceInWei\r\n  );\r\n  event OrderSuccessful(\r\n    bytes32 id,\r\n    uint256 indexed assetId,\r\n    address indexed seller,\r\n    address nftAddress,\r\n    uint256 totalPrice,\r\n    address indexed buyer\r\n  );\r\n  event OrderCancelled(\r\n    bytes32 id,\r\n    uint256 indexed assetId,\r\n    address indexed seller,\r\n    address nftAddress\r\n  );\r\n\r\n}",
  "sourcePath": "D:\\B.E\\VII sem\\Project\\Footprints\\src\\contracts\\MarketPlaceStorage.sol",
  "compiler": {
    "name": "solc",
    "version": "0.5.17+commit.d19bba13.Emscripten.clang"
  },
  "schemaVersion": "3.3.3",
  "updatedAt": "2021-08-14T19:15:29.590Z",
  "devdoc": {
    "methods": {},
    "title": "Interface for contracts conforming to ERC-721"
  },
  "userdoc": {
    "methods": {}
  }
}