{
  "contractName": "PhotographyStorage",
  "abi": [
    {
      "constant": true,
      "inputs": [],
      "name": "nftCounter",
      "outputs": [
        {
          "internalType": "uint256",
          "name": "",
          "type": "uint256"
        }
      ],
      "payable": false,
      "stateMutability": "view",
      "type": "function"
    },
    {
      "constant": true,
      "inputs": [
        {
          "internalType": "address",
          "name": "",
          "type": "address"
        },
        {
          "internalType": "uint256",
          "name": "",
          "type": "uint256"
        }
      ],
      "name": "photoByAssetId",
      "outputs": [
        {
          "internalType": "bytes32",
          "name": "id",
          "type": "bytes32"
        },
        {
          "internalType": "address payable",
          "name": "owner",
          "type": "address"
        },
        {
          "internalType": "address",
          "name": "nftAddress",
          "type": "address"
        },
        {
          "internalType": "uint256",
          "name": "price",
          "type": "uint256"
        }
      ],
      "payable": false,
      "stateMutability": "view",
      "type": "function"
    }
  ],
  "bytecode": "0x608060405234801561001057600080fd5b506101e0806100206000396000f3fe608060405234801561001057600080fd5b50600436106100365760003560e01c8063ca98c1351461003b578063e574609e1461010a575b600080fd5b6100876004803603604081101561005157600080fd5b81019080803573ffffffffffffffffffffffffffffffffffffffff16906020019092919080359060200190929190505050610128565b604051808581526020018473ffffffffffffffffffffffffffffffffffffffff1673ffffffffffffffffffffffffffffffffffffffff1681526020018373ffffffffffffffffffffffffffffffffffffffff1673ffffffffffffffffffffffffffffffffffffffff16815260200182815260200194505050505060405180910390f35b6101126101a5565b6040518082815260200191505060405180910390f35b6001602052816000526040600020602052806000526040600020600091509150508060000154908060010160009054906101000a900473ffffffffffffffffffffffffffffffffffffffff16908060020160009054906101000a900473ffffffffffffffffffffffffffffffffffffffff16908060030154905084565b6000548156fea265627a7a72315820aaf352c75fca8467093e12eac469cef7cf790c34bd7791041258a533e127336e64736f6c63430005110032",
  "source": "pragma solidity ^0.5.16;\r\n\r\n/**\r\n * @title Interface for contracts conforming to ERC-721\r\n */\r\n\r\n\r\ncontract PhotographyStorage {\r\n\r\n    \r\n    struct Photo {\r\n        bytes32 id;\r\n        address payable owner;\r\n        address nftAddress;\r\n        uint256 price;\r\n    }\r\n    \r\n  uint256 public nftCounter;\r\n    \r\n  // From NFT registry assetId to Photo (to avoid asset collision)\r\n  mapping (address => mapping(uint256 => Photo)) public photoByAssetId;\r\n  \r\n}",
  "sourcePath": "C:\\Users\\yashr\\Documents\\Important\\Projects\\Footprints\\src\\contracts\\PhotographyStorage.sol",
  "compiler": {
    "name": "solc",
    "version": "0.5.17+commit.d19bba13.Emscripten.clang"
  },
  "schemaVersion": "3.4.1",
  "updatedAt": "2021-08-14T19:26:25.445Z",
  "devdoc": {
    "methods": {},
    "title": "Interface for contracts conforming to ERC-721"
  },
  "userdoc": {
    "methods": {}
  }
}