{
  "contractName": "Photography",
  "abi": [
    {
      "constant": true,
      "inputs": [],
      "name": "marketPlaceCounter",
      "outputs": [
        {
          "internalType": "uint256",
          "name": "",
          "type": "uint256"
        }
      ],
      "payable": false,
      "stateMutability": "view",
      "type": "function"
    },
    {
      "constant": true,
      "inputs": [
        {
          "internalType": "uint256",
          "name": "",
          "type": "uint256"
        }
      ],
      "name": "marketPlaceNFT",
      "outputs": [
        {
          "internalType": "uint256",
          "name": "",
          "type": "uint256"
        }
      ],
      "payable": false,
      "stateMutability": "view",
      "type": "function"
    },
    {
      "constant": true,
      "inputs": [],
      "name": "nftCounter",
      "outputs": [
        {
          "internalType": "uint256",
          "name": "",
          "type": "uint256"
        }
      ],
      "payable": false,
      "stateMutability": "view",
      "type": "function"
    },
    {
      "constant": true,
      "inputs": [
        {
          "internalType": "address",
          "name": "",
          "type": "address"
        },
        {
          "internalType": "uint256",
          "name": "",
          "type": "uint256"
        }
      ],
      "name": "photoByAssetId",
      "outputs": [
        {
          "internalType": "bytes32",
          "name": "id",
          "type": "bytes32"
        },
        {
          "internalType": "address payable",
          "name": "owner",
          "type": "address"
        },
        {
          "internalType": "address",
          "name": "nftAddress",
          "type": "address"
        },
        {
          "internalType": "uint256",
          "name": "price",
          "type": "uint256"
        }
      ],
      "payable": false,
      "stateMutability": "view",
      "type": "function"
    },
    {
      "constant": false,
      "inputs": [
        {
          "internalType": "address",
          "name": "nftAddress",
          "type": "address"
        },
        {
          "internalType": "uint256",
          "name": "assetId",
          "type": "uint256"
        },
        {
          "internalType": "uint256",
          "name": "priceInWei",
          "type": "uint256"
        }
      ],
      "name": "setOnSale",
      "outputs": [],
      "payable": false,
      "stateMutability": "nonpayable",
      "type": "function"
    },
    {
      "constant": false,
      "inputs": [
        {
          "internalType": "address",
          "name": "nftAddress",
          "type": "address"
        },
        {
          "internalType": "uint256",
          "name": "assetId",
          "type": "uint256"
        },
        {
          "internalType": "uint256",
          "name": "priceInWei",
          "type": "uint256"
        }
      ],
      "name": "buyPhoto",
      "outputs": [],
      "payable": true,
      "stateMutability": "payable",
      "type": "function"
    }
  ],
  "bytecode": "0x6080604052600060025534801561001557600080fd5b5061061b806100256000396000f3fe6080604052600436106100555760003560e01c80633f8eb2621461005a578063b3905c0a146100b2578063ca98c13514610117578063e574609e146101f3578063e8b44fef1461021e578063f72cb6e114610249575b600080fd5b6100b06004803603606081101561007057600080fd5b81019080803573ffffffffffffffffffffffffffffffffffffffff1690602001909291908035906020019092919080359060200190929190505050610298565b005b3480156100be57600080fd5b50610115600480360360608110156100d557600080fd5b81019080803573ffffffffffffffffffffffffffffffffffffffff169060200190929190803590602001909291908035906020019092919050505061029d565b005b34801561012357600080fd5b506101706004803603604081101561013a57600080fd5b81019080803573ffffffffffffffffffffffffffffffffffffffff16906020019092919080359060200190929190505050610545565b604051808581526020018473ffffffffffffffffffffffffffffffffffffffff1673ffffffffffffffffffffffffffffffffffffffff1681526020018373ffffffffffffffffffffffffffffffffffffffff1673ffffffffffffffffffffffffffffffffffffffff16815260200182815260200194505050505060405180910390f35b3480156101ff57600080fd5b506102086105c2565b6040518082815260200191505060405180910390f35b34801561022a57600080fd5b506102336105c8565b6040518082815260200191505060405180910390f35b34801561025557600080fd5b506102826004803603602081101561026c57600080fd5b81019080803590602001909291905050506105ce565b6040518082815260200191505060405180910390f35b505050565b60008373ffffffffffffffffffffffffffffffffffffffff16636352211e846040518263ffffffff1660e01b81526004018082815260200191505060206040518083038186803b1580156102f057600080fd5b505afa158015610304573d6000803e3d6000fd5b505050506040513d602081101561031a57600080fd5b8101908080519060200190929190505050905060004282858786604051602001808681526020018573ffffffffffffffffffffffffffffffffffffffff1673ffffffffffffffffffffffffffffffffffffffff1660601b81526014018481526020018373ffffffffffffffffffffffffffffffffffffffff1673ffffffffffffffffffffffffffffffffffffffff1660601b815260140182815260200195505050505050604051602081830303815290604052805190602001209050836003600060025481526020019081526020016000208190555060016002540160028190555060405180608001604052808281526020018373ffffffffffffffffffffffffffffffffffffffff1681526020018673ffffffffffffffffffffffffffffffffffffffff16815260200184815250600160008773ffffffffffffffffffffffffffffffffffffffff1673ffffffffffffffffffffffffffffffffffffffff16815260200190815260200160002060008681526020019081526020016000206000820151816000015560208201518160010160006101000a81548173ffffffffffffffffffffffffffffffffffffffff021916908373ffffffffffffffffffffffffffffffffffffffff16021790555060408201518160020160006101000a81548173ffffffffffffffffffffffffffffffffffffffff021916908373ffffffffffffffffffffffffffffffffffffffff160217905550606082015181600301559050505050505050565b6001602052816000526040600020602052806000526040600020600091509150508060000154908060010160009054906101000a900473ffffffffffffffffffffffffffffffffffffffff16908060020160009054906101000a900473ffffffffffffffffffffffffffffffffffffffff16908060030154905084565b60005481565b60025481565b6003602052806000526040600020600091509050548156fea265627a7a72315820562c0e7fd27a2d3cf636a99a9e18589fcd75e9e95c7c935d4ee753cd01ff0b2064736f6c63430005110032",
  "source": "pragma solidity ^0.5.16;\r\n\r\nimport \"./NFT.sol\";\r\nimport \"./ERC721Token.sol\";\r\nimport \"./SafeMath.sol\";\r\nimport \"./AddressUtils.sol\";\r\nimport \"./PhotographyStorage.sol\";\r\n\r\ncontract Photography is PhotographyStorage{\r\n    \r\n    uint256 public marketPlaceCounter=0;\r\n\r\n    mapping (uint256 => uint256) public marketPlaceNFT;\r\n    \r\n    function setOnSale(        \r\n        address nftAddress,\r\n        uint256 assetId,\r\n        uint256 priceInWei) public{\r\n        \r\n        address assetOwner = NFT(nftAddress).ownerOf(assetId);\r\n        \r\n        bytes32 photoId = keccak256(\r\n            abi.encodePacked(\r\n                block.timestamp,\r\n                assetOwner,\r\n                assetId,\r\n                nftAddress,\r\n                priceInWei\r\n            )\r\n        );\r\n\r\n        marketPlaceNFT[marketPlaceCounter]=assetId;\r\n        marketPlaceCounter=marketPlaceCounter+1;\r\n\r\n        photoByAssetId[nftAddress][assetId] = Photo({\r\n            id: photoId,\r\n            owner: address(uint160(assetOwner)),\r\n            nftAddress: nftAddress,\r\n            price: priceInWei\r\n        });\r\n        \r\n    }\r\n    \r\n    function buyPhoto(        \r\n        address nftAddress,\r\n        uint256 assetId,\r\n        uint256 priceInWei) public payable{\r\n        \r\n        // address sender = msg.sender; //buyer\r\n    \r\n        // Photo memory photo = photoByAssetId[nftAddress][assetId];\r\n    \r\n        // require(photo.id != 0, \"Asset not published\");\r\n        // require(priceInWei == msg.value, \"msg.value is not correct\");\r\n        // address payable seller = photo.owner;\r\n        \r\n        \r\n        // delete photoByAssetId[nftAddress][assetId];\r\n        \r\n        // // Transfer sale amount to seller\r\n        // seller.transfer(msg.value);\r\n        \r\n        // NFT(nftAddress).approve(sender, assetId);\r\n        //Transfer asset owner\r\n        // NFT(nftAddress).transferFrom(\r\n        //   seller,\r\n        //   sender,\r\n        //   assetId\r\n        // );\r\n        \r\n    }\r\n}",
  "sourcePath": "C:/Users/yashr/Documents/Important/Projects/Footprints/src/contracts/Photography.sol",
  "compiler": {
    "name": "solc",
    "version": "0.5.17+commit.d19bba13.Emscripten.clang"
  },
  "schemaVersion": "3.4.1",
  "updatedAt": "2021-08-13T16:46:26.750Z",
  "networkType": "ethereum",
  "devdoc": {
    "methods": {}
  },
  "userdoc": {
    "methods": {}
  }
}